{
  "_format": "hh-sol-artifact-1",
  "contractName": "Vault",
  "sourceName": "contracts/Vault.sol",
  "abi": [
    {
      "inputs": [
        {
          "internalType": "address",
          "name": "_reputation",
          "type": "address"
        }
      ],
      "stateMutability": "nonpayable",
      "type": "constructor"
    },
    {
      "anonymous": false,
      "inputs": [
        {
          "indexed": false,
          "internalType": "address",
          "name": "user",
          "type": "address"
        },
        {
          "indexed": false,
          "internalType": "uint256",
          "name": "amount",
          "type": "uint256"
        }
      ],
      "name": "RewardClaimed",
      "type": "event"
    },
    {
      "anonymous": false,
      "inputs": [
        {
          "indexed": false,
          "internalType": "address",
          "name": "user",
          "type": "address"
        },
        {
          "indexed": false,
          "internalType": "uint256",
          "name": "amount",
          "type": "uint256"
        }
      ],
      "name": "Staked",
      "type": "event"
    },
    {
      "inputs": [],
      "name": "baseAPY",
      "outputs": [
        {
          "internalType": "uint256",
          "name": "",
          "type": "uint256"
        }
      ],
      "stateMutability": "view",
      "type": "function"
    },
    {
      "inputs": [
        {
          "internalType": "address",
          "name": "user",
          "type": "address"
        }
      ],
      "name": "calculateReward",
      "outputs": [
        {
          "internalType": "uint256",
          "name": "",
          "type": "uint256"
        }
      ],
      "stateMutability": "view",
      "type": "function"
    },
    {
      "inputs": [],
      "name": "reputation",
      "outputs": [
        {
          "internalType": "contract Reputation",
          "name": "",
          "type": "address"
        }
      ],
      "stateMutability": "view",
      "type": "function"
    },
    {
      "inputs": [
        {
          "internalType": "uint256",
          "name": "amount",
          "type": "uint256"
        }
      ],
      "name": "stake",
      "outputs": [],
      "stateMutability": "nonpayable",
      "type": "function"
    },
    {
      "inputs": [
        {
          "internalType": "address",
          "name": "",
          "type": "address"
        }
      ],
      "name": "stakedBalance",
      "outputs": [
        {
          "internalType": "uint256",
          "name": "",
          "type": "uint256"
        }
      ],
      "stateMutability": "view",
      "type": "function"
    }
  ],
  "bytecode": "0x6080604052600860025534801561001557600080fd5b506040516109dd3803806109dd833981810160405281019061003791906100e0565b806000806101000a81548173ffffffffffffffffffffffffffffffffffffffff021916908373ffffffffffffffffffffffffffffffffffffffff1602179055505061010d565b600080fd5b600073ffffffffffffffffffffffffffffffffffffffff82169050919050565b60006100ad82610082565b9050919050565b6100bd816100a2565b81146100c857600080fd5b50565b6000815190506100da816100b4565b92915050565b6000602082840312156100f6576100f561007d565b5b6000610104848285016100cb565b91505092915050565b6108c18061011c6000396000f3fe608060405234801561001057600080fd5b50600436106100575760003560e01c8063214405a91461005c578063602172671461007a578063a694fc3a146100aa578063c52164c6146100c6578063d82e3962146100e4575b600080fd5b610064610114565b60405161007191906103fc565b60405180910390f35b610094600480360381019061008f9190610489565b61011a565b6040516100a191906103fc565b60405180910390f35b6100c460048036038101906100bf91906104e2565b610132565b005b6100ce6101c4565b6040516100db919061056e565b60405180910390f35b6100fe60048036038101906100f99190610489565b6101e8565b60405161010b91906103fc565b60405180910390f35b60025481565b60016020528060005260406000206000915090505481565b80600160003373ffffffffffffffffffffffffffffffffffffffff1673ffffffffffffffffffffffffffffffffffffffff168152602001908152602001600020600082825461018191906105b8565b925050819055507f9e71bc8eea02a63969f509818f2dafb9254532904319f9dbda79b67bd34a5f3d33826040516101b99291906105fb565b60405180910390a150565b60008054906101000a900473ffffffffffffffffffffffffffffffffffffffff1681565b6000806064600254600160008673ffffffffffffffffffffffffffffffffffffffff1673ffffffffffffffffffffffffffffffffffffffff1681526020019081526020016000205461023a9190610624565b6102449190610695565b905060008060009054906101000a900473ffffffffffffffffffffffffffffffffffffffff1673ffffffffffffffffffffffffffffffffffffffff1663069a7882856040518263ffffffff1660e01b81526004016102a291906106c6565b600060405180830381865afa1580156102bf573d6000803e3d6000fd5b505050506040513d6000823e3d601f19601f820116820180604052508101906102e89190610842565b90506040518060400160405280600381526020017f4141410000000000000000000000000000000000000000000000000000000000815250805190602001208180519060200120036103615760646005836103439190610624565b61034d9190610695565b8261035891906105b8565b925050506103de565b6040518060400160405280600281526020017f4141000000000000000000000000000000000000000000000000000000000000815250805190602001208180519060200120036103d85760646003836103ba9190610624565b6103c49190610695565b826103cf91906105b8565b925050506103de565b81925050505b919050565b6000819050919050565b6103f6816103e3565b82525050565b600060208201905061041160008301846103ed565b92915050565b6000604051905090565b600080fd5b600080fd5b600073ffffffffffffffffffffffffffffffffffffffff82169050919050565b60006104568261042b565b9050919050565b6104668161044b565b811461047157600080fd5b50565b6000813590506104838161045d565b92915050565b60006020828403121561049f5761049e610421565b5b60006104ad84828501610474565b91505092915050565b6104bf816103e3565b81146104ca57600080fd5b50565b6000813590506104dc816104b6565b92915050565b6000602082840312156104f8576104f7610421565b5b6000610506848285016104cd565b91505092915050565b6000819050919050565b600061053461052f61052a8461042b565b61050f565b61042b565b9050919050565b600061054682610519565b9050919050565b60006105588261053b565b9050919050565b6105688161054d565b82525050565b6000602082019050610583600083018461055f565b92915050565b7f4e487b7100000000000000000000000000000000000000000000000000000000600052601160045260246000fd5b60006105c3826103e3565b91506105ce836103e3565b92508282019050808211156105e6576105e5610589565b5b92915050565b6105f58161044b565b82525050565b600060408201905061061060008301856105ec565b61061d60208301846103ed565b9392505050565b600061062f826103e3565b915061063a836103e3565b9250828202610648816103e3565b9150828204841483151761065f5761065e610589565b5b5092915050565b7f4e487b7100000000000000000000000000000000000000000000000000000000600052601260045260246000fd5b60006106a0826103e3565b91506106ab836103e3565b9250826106bb576106ba610666565b5b828204905092915050565b60006020820190506106db60008301846105ec565b92915050565b600080fd5b600080fd5b6000601f19601f8301169050919050565b7f4e487b7100000000000000000000000000000000000000000000000000000000600052604160045260246000fd5b610734826106eb565b810181811067ffffffffffffffff82111715610753576107526106fc565b5b80604052505050565b6000610766610417565b9050610772828261072b565b919050565b600067ffffffffffffffff821115610792576107916106fc565b5b61079b826106eb565b9050602081019050919050565b60005b838110156107c65780820151818401526020810190506107ab565b60008484015250505050565b60006107e56107e084610777565b61075c565b905082815260208101848484011115610801576108006106e6565b5b61080c8482856107a8565b509392505050565b600082601f830112610829576108286106e1565b5b81516108398482602086016107d2565b91505092915050565b60006020828403121561085857610857610421565b5b600082015167ffffffffffffffff81111561087657610875610426565b5b61088284828501610814565b9150509291505056fea26469706673582212209078adae2831107e06fe1f62ee997475b07f84c06f4470cc73a62ca88c456ea764736f6c634300081c0033",
  "linkReferences": {},
  "deployedLinkReferences": {}
}