{
  "_format": "hh-sol-artifact-1",
  "contractName": "MXNBWrapper",
  "sourceName": "contracts/MXNBWrapper.sol",
  "abi": [
    {
      "inputs": [
        {
          "internalType": "address",
          "name": "_adapter",
          "type": "address"
        }
      ],
      "stateMutability": "nonpayable",
      "type": "constructor"
    },
    {
      "anonymous": false,
      "inputs": [
        {
          "indexed": true,
          "internalType": "address",
          "name": "user",
          "type": "address"
        },
        {
          "indexed": false,
          "internalType": "uint256",
          "name": "amount",
          "type": "uint256"
        }
      ],
      "name": "TokensMinted",
      "type": "event"
    },
    {
      "inputs": [
        {
          "internalType": "address",
          "name": "",
          "type": "address"
        }
      ],
      "name": "balances",
      "outputs": [
        {
          "internalType": "uint256",
          "name": "",
          "type": "uint256"
        }
      ],
      "stateMutability": "view",
      "type": "function"
    },
    {
      "inputs": [
        {
          "internalType": "uint32",
          "name": "",
          "type": "uint32"
        },
        {
          "internalType": "bytes32",
          "name": "",
          "type": "bytes32"
        },
        {
          "internalType": "bytes",
          "name": "message",
          "type": "bytes"
        }
      ],
      "name": "handle",
      "outputs": [],
      "stateMutability": "nonpayable",
      "type": "function"
    },
    {
      "inputs": [],
      "name": "hyperlaneAdapter",
      "outputs": [
        {
          "internalType": "address",
          "name": "",
          "type": "address"
        }
      ],
      "stateMutability": "view",
      "type": "function"
    },
    {
      "inputs": [
        {
          "internalType": "address",
          "name": "user",
          "type": "address"
        },
        {
          "internalType": "uint256",
          "name": "amount",
          "type": "uint256"
        }
      ],
      "name": "mint",
      "outputs": [],
      "stateMutability": "nonpayable",
      "type": "function"
    }
  ],
  "bytecode": "0x608060405234801561001057600080fd5b5060405161093d38038061093d833981810160405281019061003291906100dc565b80600160006101000a81548173ffffffffffffffffffffffffffffffffffffffff021916908373ffffffffffffffffffffffffffffffffffffffff16021790555050610109565b600080fd5b600073ffffffffffffffffffffffffffffffffffffffff82169050919050565b60006100a98261007e565b9050919050565b6100b98161009e565b81146100c457600080fd5b50565b6000815190506100d6816100b0565b92915050565b6000602082840312156100f2576100f1610079565b5b6000610100848285016100c7565b91505092915050565b610825806101186000396000f3fe608060405234801561001057600080fd5b506004361061004c5760003560e01c806327e235e31461005157806340c10f191461008157806356d5d4751461009d578063ffd8cf40146100b9575b600080fd5b61006b600480360381019061006691906103e3565b6100d7565b6040516100789190610429565b60405180910390f35b61009b60048036038101906100969190610470565b6100ef565b005b6100b760048036038101906100b29190610587565b610204565b005b6100c1610355565b6040516100ce919061060a565b60405180910390f35b60006020528060005260406000206000915090505481565b3073ffffffffffffffffffffffffffffffffffffffff163373ffffffffffffffffffffffffffffffffffffffff161461015d576040517f08c379a000000000000000000000000000000000000000000000000000000000815260040161015490610682565b60405180910390fd5b806000808473ffffffffffffffffffffffffffffffffffffffff1673ffffffffffffffffffffffffffffffffffffffff16815260200190815260200160002060008282546101ab91906106d1565b925050819055508173ffffffffffffffffffffffffffffffffffffffff167f3f2c9d57c068687834f0de942a9babb9e5acab57d516d3480a3c16ee165a4273826040516101f89190610429565b60405180910390a25050565b600160009054906101000a900473ffffffffffffffffffffffffffffffffffffffff1673ffffffffffffffffffffffffffffffffffffffff163373ffffffffffffffffffffffffffffffffffffffff1614610294576040517f08c379a000000000000000000000000000000000000000000000000000000000815260040161028b90610751565b60405180910390fd5b60008083838101906102a691906107af565b91509150806000808473ffffffffffffffffffffffffffffffffffffffff1673ffffffffffffffffffffffffffffffffffffffff16815260200190815260200160002060008282546102f891906106d1565b925050819055508173ffffffffffffffffffffffffffffffffffffffff167f3f2c9d57c068687834f0de942a9babb9e5acab57d516d3480a3c16ee165a4273826040516103459190610429565b60405180910390a2505050505050565b600160009054906101000a900473ffffffffffffffffffffffffffffffffffffffff1681565b600080fd5b600080fd5b600073ffffffffffffffffffffffffffffffffffffffff82169050919050565b60006103b082610385565b9050919050565b6103c0816103a5565b81146103cb57600080fd5b50565b6000813590506103dd816103b7565b92915050565b6000602082840312156103f9576103f861037b565b5b6000610407848285016103ce565b91505092915050565b6000819050919050565b61042381610410565b82525050565b600060208201905061043e600083018461041a565b92915050565b61044d81610410565b811461045857600080fd5b50565b60008135905061046a81610444565b92915050565b600080604083850312156104875761048661037b565b5b6000610495858286016103ce565b92505060206104a68582860161045b565b9150509250929050565b600063ffffffff82169050919050565b6104c9816104b0565b81146104d457600080fd5b50565b6000813590506104e6816104c0565b92915050565b6000819050919050565b6104ff816104ec565b811461050a57600080fd5b50565b60008135905061051c816104f6565b92915050565b600080fd5b600080fd5b600080fd5b60008083601f84011261054757610546610522565b5b8235905067ffffffffffffffff81111561056457610563610527565b5b6020830191508360018202830111156105805761057f61052c565b5b9250929050565b600080600080606085870312156105a1576105a061037b565b5b60006105af878288016104d7565b94505060206105c08782880161050d565b935050604085013567ffffffffffffffff8111156105e1576105e0610380565b5b6105ed87828801610531565b925092505092959194509250565b610604816103a5565b82525050565b600060208201905061061f60008301846105fb565b92915050565b600082825260208201905092915050565b7f556e617574686f72697a65640000000000000000000000000000000000000000600082015250565b600061066c600c83610625565b915061067782610636565b602082019050919050565b6000602082019050818103600083015261069b8161065f565b9050919050565b7f4e487b7100000000000000000000000000000000000000000000000000000000600052601160045260246000fd5b60006106dc82610410565b91506106e783610410565b92508282019050808211156106ff576106fe6106a2565b5b92915050565b7f4f6e6c792048797065726c616e65206164617074657200000000000000000000600082015250565b600061073b601683610625565b915061074682610705565b602082019050919050565b6000602082019050818103600083015261076a8161072e565b9050919050565b600061077c82610385565b9050919050565b61078c81610771565b811461079757600080fd5b50565b6000813590506107a981610783565b92915050565b600080604083850312156107c6576107c561037b565b5b60006107d48582860161079a565b92505060206107e58582860161045b565b915050925092905056fea2646970667358221220b5ae0e56345724214bad2a69260655bd66dbfa53842d11de5b9b03bbec84f73f64736f6c634300081c0033",
  "linkReferences": {},
  "deployedLinkReferences": {}
}