{
  "_format": "hh-sol-artifact-1",
  "contractName": "BlockPrestMXNBHub",
  "sourceName": "contracts/BlockPrestMXNBHub.sol",
  "abi": [
    {
      "inputs": [
        {
          "internalType": "address",
          "name": "_mailbox",
          "type": "address"
        },
        {
          "internalType": "address",
          "name": "_mxnbToken",
          "type": "address"
        }
      ],
      "stateMutability": "nonpayable",
      "type": "constructor"
    },
    {
      "anonymous": false,
      "inputs": [
        {
          "indexed": true,
          "internalType": "address",
          "name": "investor",
          "type": "address"
        },
        {
          "indexed": false,
          "internalType": "uint256",
          "name": "amount",
          "type": "uint256"
        }
      ],
      "name": "DepositReceived",
      "type": "event"
    },
    {
      "anonymous": false,
      "inputs": [
        {
          "indexed": true,
          "internalType": "uint32",
          "name": "chainId",
          "type": "uint32"
        },
        {
          "indexed": false,
          "internalType": "uint256",
          "name": "amount",
          "type": "uint256"
        }
      ],
      "name": "TransferInitiated",
      "type": "event"
    },
    {
      "inputs": [],
      "name": "admin",
      "outputs": [
        {
          "internalType": "address",
          "name": "",
          "type": "address"
        }
      ],
      "stateMutability": "view",
      "type": "function"
    },
    {
      "inputs": [
        {
          "internalType": "uint256",
          "name": "amount",
          "type": "uint256"
        }
      ],
      "name": "deposit",
      "outputs": [],
      "stateMutability": "nonpayable",
      "type": "function"
    },
    {
      "inputs": [],
      "name": "mailbox",
      "outputs": [
        {
          "internalType": "contract IMailbox",
          "name": "",
          "type": "address"
        }
      ],
      "stateMutability": "view",
      "type": "function"
    },
    {
      "inputs": [],
      "name": "mxnbToken",
      "outputs": [
        {
          "internalType": "contract IERC20",
          "name": "",
          "type": "address"
        }
      ],
      "stateMutability": "view",
      "type": "function"
    },
    {
      "inputs": [
        {
          "internalType": "uint32",
          "name": "",
          "type": "uint32"
        }
      ],
      "name": "supportedChains",
      "outputs": [
        {
          "internalType": "bytes32",
          "name": "receiverAddress",
          "type": "bytes32"
        },
        {
          "internalType": "bool",
          "name": "isActive",
          "type": "bool"
        }
      ],
      "stateMutability": "view",
      "type": "function"
    },
    {
      "inputs": [
        {
          "internalType": "uint32",
          "name": "chainId",
          "type": "uint32"
        },
        {
          "internalType": "uint256",
          "name": "amount",
          "type": "uint256"
        }
      ],
      "name": "transferToChain",
      "outputs": [],
      "stateMutability": "payable",
      "type": "function"
    }
  ],
  "bytecode": "0x60c060405234801561001057600080fd5b50604051610cd1380380610cd1833981810160405281019061003291906101d6565b8173ffffffffffffffffffffffffffffffffffffffff1660808173ffffffffffffffffffffffffffffffffffffffff16815250508073ffffffffffffffffffffffffffffffffffffffff1660a08173ffffffffffffffffffffffffffffffffffffffff1681525050336000806101000a81548173ffffffffffffffffffffffffffffffffffffffff021916908373ffffffffffffffffffffffffffffffffffffffff1602179055506101046208274f7346c967c9329a7549c69b34d78ad21eca53b9e94a60001b61010b60201b60201c565b5050610216565b604051806040016040528082815260200160011515815250600160008463ffffffff1663ffffffff1681526020019081526020016000206000820151816000015560208201518160010160006101000a81548160ff0219169083151502179055509050505050565b600080fd5b600073ffffffffffffffffffffffffffffffffffffffff82169050919050565b60006101a382610178565b9050919050565b6101b381610198565b81146101be57600080fd5b50565b6000815190506101d0816101aa565b92915050565b600080604083850312156101ed576101ec610173565b5b60006101fb858286016101c1565b925050602061020c858286016101c1565b9150509250929050565b60805160a051610a81610250600039600081816101f7015281816103d901526103fd0152600081816102be01526104ef0152610a816000f3fe6080604052600436106100555760003560e01c8063208d2ce41461005a578063248514dd146100765780634043cd95146100b4578063b6b55f25146100df578063d5438eae14610108578063f851a44014610133575b600080fd5b610074600480360381019061006f91906105ac565b61015e565b005b34801561008257600080fd5b5061009d600480360381019061009891906105ec565b6103a6565b6040516100ab92919061064d565b60405180910390f35b3480156100c057600080fd5b506100c96103d7565b6040516100d691906106f5565b60405180910390f35b3480156100eb57600080fd5b5061010660048036038101906101019190610710565b6103fb565b005b34801561011457600080fd5b5061011d6104ed565b60405161012a919061075e565b60405180910390f35b34801561013f57600080fd5b50610148610511565b604051610155919061079a565b60405180910390f35b6000600160008463ffffffff1663ffffffff168152602001908152602001600020604051806040016040529081600082015481526020016001820160009054906101000a900460ff161515151581525050905080602001516101f5576040517f08c379a00000000000000000000000000000000000000000000000000000000081526004016101ec90610812565b60405180910390fd5b7f000000000000000000000000000000000000000000000000000000000000000073ffffffffffffffffffffffffffffffffffffffff166323b872dd3330856040518463ffffffff1660e01b815260040161025293929190610841565b6020604051808303816000875af1158015610271573d6000803e3d6000fd5b505050506040513d601f19601f8201168201806040525081019061029591906108a4565b50600033836040516020016102ab9291906108d1565b60405160208183030381529060405290507f000000000000000000000000000000000000000000000000000000000000000073ffffffffffffffffffffffffffffffffffffffff1663fa31de0134868560000151856040518563ffffffff1660e01b815260040161031e93929190610999565b60206040518083038185885af115801561033c573d6000803e3d6000fd5b50505050506040513d601f19601f820116820180604052508101906103619190610a03565b508363ffffffff167f6e59730279ee4c794ed1838077b71cc050740d1809faa209f8c5be6cac93f815846040516103989190610a30565b60405180910390a250505050565b60016020528060005260406000206000915090508060000154908060010160009054906101000a900460ff16905082565b7f000000000000000000000000000000000000000000000000000000000000000081565b7f000000000000000000000000000000000000000000000000000000000000000073ffffffffffffffffffffffffffffffffffffffff166323b872dd3330846040518463ffffffff1660e01b815260040161045893929190610841565b6020604051808303816000875af1158015610477573d6000803e3d6000fd5b505050506040513d601f19601f8201168201806040525081019061049b91906108a4565b503373ffffffffffffffffffffffffffffffffffffffff167f9936746a4565f9766fa768f88f56a7487c78780ac179562773d1c75c5269537e826040516104e29190610a30565b60405180910390a250565b7f000000000000000000000000000000000000000000000000000000000000000081565b60008054906101000a900473ffffffffffffffffffffffffffffffffffffffff1681565b600080fd5b600063ffffffff82169050919050565b6105538161053a565b811461055e57600080fd5b50565b6000813590506105708161054a565b92915050565b6000819050919050565b61058981610576565b811461059457600080fd5b50565b6000813590506105a681610580565b92915050565b600080604083850312156105c3576105c2610535565b5b60006105d185828601610561565b92505060206105e285828601610597565b9150509250929050565b60006020828403121561060257610601610535565b5b600061061084828501610561565b91505092915050565b6000819050919050565b61062c81610619565b82525050565b60008115159050919050565b61064781610632565b82525050565b60006040820190506106626000830185610623565b61066f602083018461063e565b9392505050565b600073ffffffffffffffffffffffffffffffffffffffff82169050919050565b6000819050919050565b60006106bb6106b66106b184610676565b610696565b610676565b9050919050565b60006106cd826106a0565b9050919050565b60006106df826106c2565b9050919050565b6106ef816106d4565b82525050565b600060208201905061070a60008301846106e6565b92915050565b60006020828403121561072657610725610535565b5b600061073484828501610597565b91505092915050565b6000610748826106c2565b9050919050565b6107588161073d565b82525050565b6000602082019050610773600083018461074f565b92915050565b600061078482610676565b9050919050565b61079481610779565b82525050565b60006020820190506107af600083018461078b565b92915050565b600082825260208201905092915050565b7f436861696e206e6f7420737570706f7274656400000000000000000000000000600082015250565b60006107fc6013836107b5565b9150610807826107c6565b602082019050919050565b6000602082019050818103600083015261082b816107ef565b9050919050565b61083b81610576565b82525050565b6000606082019050610856600083018661078b565b610863602083018561078b565b6108706040830184610832565b949350505050565b61088181610632565b811461088c57600080fd5b50565b60008151905061089e81610878565b92915050565b6000602082840312156108ba576108b9610535565b5b60006108c88482850161088f565b91505092915050565b60006040820190506108e6600083018561078b565b6108f36020830184610832565b9392505050565b6109038161053a565b82525050565b600081519050919050565b600082825260208201905092915050565b60005b83811015610943578082015181840152602081019050610928565b60008484015250505050565b6000601f19601f8301169050919050565b600061096b82610909565b6109758185610914565b9350610985818560208601610925565b61098e8161094f565b840191505092915050565b60006060820190506109ae60008301866108fa565b6109bb6020830185610623565b81810360408301526109cd8184610960565b9050949350505050565b6109e081610619565b81146109eb57600080fd5b50565b6000815190506109fd816109d7565b92915050565b600060208284031215610a1957610a18610535565b5b6000610a27848285016109ee565b91505092915050565b6000602082019050610a456000830184610832565b9291505056fea2646970667358221220e251e08b0509114204e70dd9fb63e868774e1ac9e865109c291226013cf0b09364736f6c634300081c0033",
  "linkReferences": {},
  "deployedLinkReferences": {}
}