{
  "_format": "hh-sol-artifact-1",
  "contractName": "LoanPool",
  "sourceName": "contracts/LoanPool.sol",
  "abi": [
    {
      "inputs": [
        {
          "internalType": "address",
          "name": "_mxnbWrapper",
          "type": "address"
        },
        {
          "internalType": "address",
          "name": "_reputation",
          "type": "address"
        }
      ],
      "stateMutability": "nonpayable",
      "type": "constructor"
    },
    {
      "anonymous": false,
      "inputs": [
        {
          "indexed": false,
          "internalType": "bytes32",
          "name": "groupId",
          "type": "bytes32"
        },
        {
          "indexed": false,
          "internalType": "address[]",
          "name": "members",
          "type": "address[]"
        }
      ],
      "name": "LoanCreated",
      "type": "event"
    },
    {
      "inputs": [
        {
          "internalType": "uint256",
          "name": "",
          "type": "uint256"
        }
      ],
      "name": "allGroupIds",
      "outputs": [
        {
          "internalType": "bytes32",
          "name": "",
          "type": "bytes32"
        }
      ],
      "stateMutability": "view",
      "type": "function"
    },
    {
      "inputs": [
        {
          "internalType": "address[]",
          "name": "members",
          "type": "address[]"
        },
        {
          "internalType": "uint256",
          "name": "amountPerMember",
          "type": "uint256"
        },
        {
          "internalType": "uint256",
          "name": "termInMonths",
          "type": "uint256"
        }
      ],
      "name": "createLoanGroup",
      "outputs": [
        {
          "internalType": "bytes32",
          "name": "groupId",
          "type": "bytes32"
        }
      ],
      "stateMutability": "nonpayable",
      "type": "function"
    },
    {
      "inputs": [],
      "name": "getAllLoanGroups",
      "outputs": [
        {
          "internalType": "address[][]",
          "name": "membersList",
          "type": "address[][]"
        },
        {
          "internalType": "uint256[]",
          "name": "totalAmounts",
          "type": "uint256[]"
        },
        {
          "internalType": "uint256[]",
          "name": "terms",
          "type": "uint256[]"
        },
        {
          "internalType": "uint256[]",
          "name": "startDates",
          "type": "uint256[]"
        },
        {
          "internalType": "bytes32[]",
          "name": "ids",
          "type": "bytes32[]"
        }
      ],
      "stateMutability": "view",
      "type": "function"
    },
    {
      "inputs": [],
      "name": "groupCounter",
      "outputs": [
        {
          "internalType": "uint256",
          "name": "",
          "type": "uint256"
        }
      ],
      "stateMutability": "view",
      "type": "function"
    },
    {
      "inputs": [
        {
          "internalType": "bytes32",
          "name": "",
          "type": "bytes32"
        }
      ],
      "name": "loanGroups",
      "outputs": [
        {
          "internalType": "uint256",
          "name": "totalAmount",
          "type": "uint256"
        },
        {
          "internalType": "uint256",
          "name": "term",
          "type": "uint256"
        },
        {
          "internalType": "uint256",
          "name": "startDate",
          "type": "uint256"
        }
      ],
      "stateMutability": "view",
      "type": "function"
    },
    {
      "inputs": [],
      "name": "mxnb",
      "outputs": [
        {
          "internalType": "contract MXNBWrapper",
          "name": "",
          "type": "address"
        }
      ],
      "stateMutability": "view",
      "type": "function"
    },
    {
      "inputs": [],
      "name": "reputation",
      "outputs": [
        {
          "internalType": "contract Reputation",
          "name": "",
          "type": "address"
        }
      ],
      "stateMutability": "view",
      "type": "function"
    }
  ],
  "bytecode": "0x608060405234801561001057600080fd5b506040516115c53803806115c58339818101604052810190610032919061011d565b816000806101000a81548173ffffffffffffffffffffffffffffffffffffffff021916908373ffffffffffffffffffffffffffffffffffffffff16021790555080600160006101000a81548173ffffffffffffffffffffffffffffffffffffffff021916908373ffffffffffffffffffffffffffffffffffffffff160217905550505061015d565b600080fd5b600073ffffffffffffffffffffffffffffffffffffffff82169050919050565b60006100ea826100bf565b9050919050565b6100fa816100df565b811461010557600080fd5b50565b600081519050610117816100f1565b92915050565b60008060408385031215610134576101336100ba565b5b600061014285828601610108565b925050602061015385828601610108565b9150509250929050565b6114598061016c6000396000f3fe608060405234801561001057600080fd5b506004361061007d5760003560e01c8063c04d1f761161005b578063c04d1f7614610102578063c36c467714610124578063c52164c614610154578063d24924fe146101725761007d565b80632d2f150d146100825780638ac8cd5c146100b257806392b75936146100e4575b600080fd5b61009c60048036038101906100979190610a74565b610190565b6040516100a99190610b01565b60405180910390f35b6100cc60048036038101906100c79190610b48565b61056c565b6040516100db93929190610b84565b60405180910390f35b6100ec610596565b6040516100f99190610c3a565b60405180910390f35b61010a6105ba565b60405161011b959493929190610f63565b60405180910390f35b61013e60048036038101906101399190610fd9565b6108d8565b60405161014b9190610b01565b60405180910390f35b61015c6108fc565b6040516101699190611027565b60405180910390f35b61017a610922565b6040516101879190611042565b60405180910390f35b60008085859050846101a2919061108c565b90508060008054906101000a900473ffffffffffffffffffffffffffffffffffffffff1673ffffffffffffffffffffffffffffffffffffffff166327e235e3306040518263ffffffff1660e01b81526004016101fe91906110dd565b602060405180830381865afa15801561021b573d6000803e3d6000fd5b505050506040513d601f19601f8201168201806040525081019061023f919061110d565b1015610280576040517f08c379a000000000000000000000000000000000000000000000000000000000815260040161027790611197565b60405180910390fd5b8585426040516020016102959392919061127f565b6040516020818303038152906040528051906020012091506040518060800160405280878780806020026020016040519081016040528093929190818152602001838360200280828437600081840152601f19601f8201169050808301925050505050505081526020018281526020018481526020014281525060026000848152602001908152602001600020600082015181600001908051906020019061033e929190610928565b5060208201518160010155604082015181600201556060820151816003015590505060038290806001815401808255809150506001900390600052602060002001600090919091909150556004600081548092919061039c906112b1565b919050555060005b868690508110156105275760008054906101000a900473ffffffffffffffffffffffffffffffffffffffff1673ffffffffffffffffffffffffffffffffffffffff166340c10f198888848181106103fe576103fd6112f9565b5b90506020020160208101906104139190611328565b876040518363ffffffff1660e01b8152600401610431929190611355565b600060405180830381600087803b15801561044b57600080fd5b505af115801561045f573d6000803e3d6000fd5b50505050600160009054906101000a900473ffffffffffffffffffffffffffffffffffffffff1673ffffffffffffffffffffffffffffffffffffffff1663838813118888848181106104b4576104b36112f9565b5b90506020020160208101906104c99190611328565b60016040518363ffffffff1660e01b81526004016104e8929190611399565b600060405180830381600087803b15801561050257600080fd5b505af1158015610516573d6000803e3d6000fd5b5050505080806001019150506103a4565b507f369c73c9075fce56c61dc63bc11e31c9aa9e533e8277fb067356ba3371903c7682878760405161055b939291906113c2565b60405180910390a150949350505050565b60026020528060005260406000206000915090508060010154908060020154908060030154905083565b60008054906101000a900473ffffffffffffffffffffffffffffffffffffffff1681565b6060806060806060600060038054905090508067ffffffffffffffff8111156105e6576105e56113f4565b5b60405190808252806020026020018201604052801561061957816020015b60608152602001906001900390816106045790505b5095508067ffffffffffffffff811115610636576106356113f4565b5b6040519080825280602002602001820160405280156106645781602001602082028036833780820191505090505b5094508067ffffffffffffffff811115610681576106806113f4565b5b6040519080825280602002602001820160405280156106af5781602001602082028036833780820191505090505b5093508067ffffffffffffffff8111156106cc576106cb6113f4565b5b6040519080825280602002602001820160405280156106fa5781602001602082028036833780820191505090505b5092508067ffffffffffffffff811115610717576107166113f4565b5b6040519080825280602002602001820160405280156107455781602001602082028036833780820191505090505b50915060005b818110156108cf57600060038281548110610769576107686112f9565b5b9060005260206000200154905060006002600083815260200190815260200160002090508060000180548060200260200160405190810160405280929190818152602001828054801561081157602002820191906000526020600020905b8160009054906101000a900473ffffffffffffffffffffffffffffffffffffffff1673ffffffffffffffffffffffffffffffffffffffff16815260200190600101908083116107c7575b5050505050898481518110610829576108286112f9565b5b6020026020010181905250806001015488848151811061084c5761084b6112f9565b5b60200260200101818152505080600201548784815181106108705761086f6112f9565b5b6020026020010181815250508060030154868481518110610894576108936112f9565b5b602002602001018181525050818584815181106108b4576108b36112f9565b5b6020026020010181815250505050808060010191505061074b565b50509091929394565b600381815481106108e857600080fd5b906000526020600020016000915090505481565b600160009054906101000a900473ffffffffffffffffffffffffffffffffffffffff1681565b60045481565b8280548282559060005260206000209081019282156109a1579160200282015b828111156109a05782518260006101000a81548173ffffffffffffffffffffffffffffffffffffffff021916908373ffffffffffffffffffffffffffffffffffffffff16021790555091602001919060010190610948565b5b5090506109ae91906109b2565b5090565b5b808211156109cb5760008160009055506001016109b3565b5090565b600080fd5b600080fd5b600080fd5b600080fd5b600080fd5b60008083601f8401126109fe576109fd6109d9565b5b8235905067ffffffffffffffff811115610a1b57610a1a6109de565b5b602083019150836020820283011115610a3757610a366109e3565b5b9250929050565b6000819050919050565b610a5181610a3e565b8114610a5c57600080fd5b50565b600081359050610a6e81610a48565b92915050565b60008060008060608587031215610a8e57610a8d6109cf565b5b600085013567ffffffffffffffff811115610aac57610aab6109d4565b5b610ab8878288016109e8565b94509450506020610acb87828801610a5f565b9250506040610adc87828801610a5f565b91505092959194509250565b6000819050919050565b610afb81610ae8565b82525050565b6000602082019050610b166000830184610af2565b92915050565b610b2581610ae8565b8114610b3057600080fd5b50565b600081359050610b4281610b1c565b92915050565b600060208284031215610b5e57610b5d6109cf565b5b6000610b6c84828501610b33565b91505092915050565b610b7e81610a3e565b82525050565b6000606082019050610b996000830186610b75565b610ba66020830185610b75565b610bb36040830184610b75565b949350505050565b600073ffffffffffffffffffffffffffffffffffffffff82169050919050565b6000819050919050565b6000610c00610bfb610bf684610bbb565b610bdb565b610bbb565b9050919050565b6000610c1282610be5565b9050919050565b6000610c2482610c07565b9050919050565b610c3481610c19565b82525050565b6000602082019050610c4f6000830184610c2b565b92915050565b600081519050919050565b600082825260208201905092915050565b6000819050602082019050919050565b600081519050919050565b600082825260208201905092915050565b6000819050602082019050919050565b6000610cb882610bbb565b9050919050565b610cc881610cad565b82525050565b6000610cda8383610cbf565b60208301905092915050565b6000602082019050919050565b6000610cfe82610c81565b610d088185610c8c565b9350610d1383610c9d565b8060005b83811015610d44578151610d2b8882610cce565b9750610d3683610ce6565b925050600181019050610d17565b5085935050505092915050565b6000610d5d8383610cf3565b905092915050565b6000602082019050919050565b6000610d7d82610c55565b610d878185610c60565b935083602082028501610d9985610c71565b8060005b85811015610dd55784840389528151610db68582610d51565b9450610dc183610d65565b925060208a01995050600181019050610d9d565b50829750879550505050505092915050565b600081519050919050565b600082825260208201905092915050565b6000819050602082019050919050565b610e1c81610a3e565b82525050565b6000610e2e8383610e13565b60208301905092915050565b6000602082019050919050565b6000610e5282610de7565b610e5c8185610df2565b9350610e6783610e03565b8060005b83811015610e98578151610e7f8882610e22565b9750610e8a83610e3a565b925050600181019050610e6b565b5085935050505092915050565b600081519050919050565b600082825260208201905092915050565b6000819050602082019050919050565b610eda81610ae8565b82525050565b6000610eec8383610ed1565b60208301905092915050565b6000602082019050919050565b6000610f1082610ea5565b610f1a8185610eb0565b9350610f2583610ec1565b8060005b83811015610f56578151610f3d8882610ee0565b9750610f4883610ef8565b925050600181019050610f29565b5085935050505092915050565b600060a0820190508181036000830152610f7d8188610d72565b90508181036020830152610f918187610e47565b90508181036040830152610fa58186610e47565b90508181036060830152610fb98185610e47565b90508181036080830152610fcd8184610f05565b90509695505050505050565b600060208284031215610fef57610fee6109cf565b5b6000610ffd84828501610a5f565b91505092915050565b600061101182610c07565b9050919050565b61102181611006565b82525050565b600060208201905061103c6000830184611018565b92915050565b60006020820190506110576000830184610b75565b92915050565b7f4e487b7100000000000000000000000000000000000000000000000000000000600052601160045260246000fd5b600061109782610a3e565b91506110a283610a3e565b92508282026110b081610a3e565b915082820484148315176110c7576110c661105d565b5b5092915050565b6110d781610cad565b82525050565b60006020820190506110f260008301846110ce565b92915050565b60008151905061110781610a48565b92915050565b600060208284031215611123576111226109cf565b5b6000611131848285016110f8565b91505092915050565b600082825260208201905092915050565b7f496e73756666696369656e742066756e64730000000000000000000000000000600082015250565b600061118160128361113a565b915061118c8261114b565b602082019050919050565b600060208201905081810360008301526111b081611174565b9050919050565b600082825260208201905092915050565b6000819050919050565b6111db81610cad565b81146111e657600080fd5b50565b6000813590506111f8816111d2565b92915050565b600061120d60208401846111e9565b905092915050565b6000602082019050919050565b600061122e83856111b7565b9350611239826111c8565b8060005b858110156112725761124f82846111fe565b6112598882610cce565b975061126483611215565b92505060018101905061123d565b5085925050509392505050565b6000604082019050818103600083015261129a818587611222565b90506112a96020830184610b75565b949350505050565b60006112bc82610a3e565b91507fffffffffffffffffffffffffffffffffffffffffffffffffffffffffffffffff82036112ee576112ed61105d565b5b600182019050919050565b7f4e487b7100000000000000000000000000000000000000000000000000000000600052603260045260246000fd5b60006020828403121561133e5761133d6109cf565b5b600061134c848285016111e9565b91505092915050565b600060408201905061136a60008301856110ce565b6113776020830184610b75565b9392505050565b60008115159050919050565b6113938161137e565b82525050565b60006040820190506113ae60008301856110ce565b6113bb602083018461138a565b9392505050565b60006040820190506113d76000830186610af2565b81810360208301526113ea818486611222565b9050949350505050565b7f4e487b7100000000000000000000000000000000000000000000000000000000600052604160045260246000fdfea2646970667358221220a94ad08c15cd76d8dde3d98feda0dbc8239ae9b78acd6a0f829795c1510dae8264736f6c634300081c0033",
  "linkReferences": {},
  "deployedLinkReferences": {}
}