{
  "_format": "hh-sol-artifact-1",
  "contractName": "LoanPool",
  "sourceName": "contracts/LoanPool.sol",
  "abi": [
    {
      "inputs": [
        {
          "internalType": "address",
          "name": "_mxnbWrapper",
          "type": "address"
        },
        {
          "internalType": "address",
          "name": "_reputation",
          "type": "address"
        }
      ],
      "stateMutability": "nonpayable",
      "type": "constructor"
    },
    {
      "anonymous": false,
      "inputs": [
        {
          "indexed": false,
          "internalType": "bytes32",
          "name": "groupId",
          "type": "bytes32"
        },
        {
          "indexed": false,
          "internalType": "address[]",
          "name": "members",
          "type": "address[]"
        }
      ],
      "name": "LoanCreated",
      "type": "event"
    },
    {
      "inputs": [
        {
          "internalType": "address[]",
          "name": "members",
          "type": "address[]"
        },
        {
          "internalType": "uint256",
          "name": "amountPerMember",
          "type": "uint256"
        },
        {
          "internalType": "uint256",
          "name": "termInMonths",
          "type": "uint256"
        }
      ],
      "name": "createLoanGroup",
      "outputs": [
        {
          "internalType": "bytes32",
          "name": "groupId",
          "type": "bytes32"
        }
      ],
      "stateMutability": "nonpayable",
      "type": "function"
    },
    {
      "inputs": [],
      "name": "groupCounter",
      "outputs": [
        {
          "internalType": "uint256",
          "name": "",
          "type": "uint256"
        }
      ],
      "stateMutability": "view",
      "type": "function"
    },
    {
      "inputs": [
        {
          "internalType": "bytes32",
          "name": "",
          "type": "bytes32"
        }
      ],
      "name": "loanGroups",
      "outputs": [
        {
          "internalType": "uint256",
          "name": "totalAmount",
          "type": "uint256"
        },
        {
          "internalType": "uint256",
          "name": "term",
          "type": "uint256"
        },
        {
          "internalType": "uint256",
          "name": "startDate",
          "type": "uint256"
        }
      ],
      "stateMutability": "view",
      "type": "function"
    },
    {
      "inputs": [],
      "name": "mxnb",
      "outputs": [
        {
          "internalType": "contract MXNBWrapper",
          "name": "",
          "type": "address"
        }
      ],
      "stateMutability": "view",
      "type": "function"
    },
    {
      "inputs": [],
      "name": "reputation",
      "outputs": [
        {
          "internalType": "contract Reputation",
          "name": "",
          "type": "address"
        }
      ],
      "stateMutability": "view",
      "type": "function"
    }
  ],
  "bytecode": "0x608060405234801561001057600080fd5b50604051610e3b380380610e3b8339818101604052810190610032919061011d565b816000806101000a81548173ffffffffffffffffffffffffffffffffffffffff021916908373ffffffffffffffffffffffffffffffffffffffff16021790555080600160006101000a81548173ffffffffffffffffffffffffffffffffffffffff021916908373ffffffffffffffffffffffffffffffffffffffff160217905550505061015d565b600080fd5b600073ffffffffffffffffffffffffffffffffffffffff82169050919050565b60006100ea826100bf565b9050919050565b6100fa816100df565b811461010557600080fd5b50565b600081519050610117816100f1565b92915050565b60008060408385031215610134576101336100ba565b5b600061014285828601610108565b925050602061015385828601610108565b9150509250929050565b610ccf8061016c6000396000f3fe608060405234801561001057600080fd5b50600436106100575760003560e01c80632d2f150d1461005c5780638ac8cd5c1461008c57806392b75936146100be578063c52164c6146100dc578063d24924fe146100fa575b600080fd5b61007660048036038101906100719190610691565b610118565b604051610083919061071e565b60405180910390f35b6100a660048036038101906100a19190610765565b6104cb565b6040516100b5939291906107a1565b60405180910390f35b6100c66104f5565b6040516100d39190610857565b60405180910390f35b6100e4610519565b6040516100f19190610893565b60405180910390f35b61010261053f565b60405161010f91906108ae565b60405180910390f35b600080858590508461012a91906108f8565b90508060008054906101000a900473ffffffffffffffffffffffffffffffffffffffff1673ffffffffffffffffffffffffffffffffffffffff166327e235e3306040518263ffffffff1660e01b8152600401610186919061095b565b602060405180830381865afa1580156101a3573d6000803e3d6000fd5b505050506040513d601f19601f820116820180604052508101906101c7919061098b565b1015610208576040517f08c379a00000000000000000000000000000000000000000000000000000000081526004016101ff90610a15565b60405180910390fd5b85854260405160200161021d93929190610b24565b6040516020818303038152906040528051906020012091506040518060800160405280878780806020026020016040519081016040528093929190818152602001838360200280828437600081840152601f19601f820116905080830192505050505050508152602001828152602001848152602001428152506002600084815260200190815260200160002060008201518160000190805190602001906102c6929190610545565b50602082015181600101556040820151816002015560608201518160030155905050600360008154809291906102fb90610b56565b919050555060005b868690508110156104865760008054906101000a900473ffffffffffffffffffffffffffffffffffffffff1673ffffffffffffffffffffffffffffffffffffffff166340c10f1988888481811061035d5761035c610b9e565b5b90506020020160208101906103729190610bcd565b876040518363ffffffff1660e01b8152600401610390929190610bfa565b600060405180830381600087803b1580156103aa57600080fd5b505af11580156103be573d6000803e3d6000fd5b50505050600160009054906101000a900473ffffffffffffffffffffffffffffffffffffffff1673ffffffffffffffffffffffffffffffffffffffff16638388131188888481811061041357610412610b9e565b5b90506020020160208101906104289190610bcd565b60016040518363ffffffff1660e01b8152600401610447929190610c3e565b600060405180830381600087803b15801561046157600080fd5b505af1158015610475573d6000803e3d6000fd5b505050508080600101915050610303565b507f369c73c9075fce56c61dc63bc11e31c9aa9e533e8277fb067356ba3371903c768287876040516104ba93929190610c67565b60405180910390a150949350505050565b60026020528060005260406000206000915090508060010154908060020154908060030154905083565b60008054906101000a900473ffffffffffffffffffffffffffffffffffffffff1681565b600160009054906101000a900473ffffffffffffffffffffffffffffffffffffffff1681565b60035481565b8280548282559060005260206000209081019282156105be579160200282015b828111156105bd5782518260006101000a81548173ffffffffffffffffffffffffffffffffffffffff021916908373ffffffffffffffffffffffffffffffffffffffff16021790555091602001919060010190610565565b5b5090506105cb91906105cf565b5090565b5b808211156105e85760008160009055506001016105d0565b5090565b600080fd5b600080fd5b600080fd5b600080fd5b600080fd5b60008083601f84011261061b5761061a6105f6565b5b8235905067ffffffffffffffff811115610638576106376105fb565b5b60208301915083602082028301111561065457610653610600565b5b9250929050565b6000819050919050565b61066e8161065b565b811461067957600080fd5b50565b60008135905061068b81610665565b92915050565b600080600080606085870312156106ab576106aa6105ec565b5b600085013567ffffffffffffffff8111156106c9576106c86105f1565b5b6106d587828801610605565b945094505060206106e88782880161067c565b92505060406106f98782880161067c565b91505092959194509250565b6000819050919050565b61071881610705565b82525050565b6000602082019050610733600083018461070f565b92915050565b61074281610705565b811461074d57600080fd5b50565b60008135905061075f81610739565b92915050565b60006020828403121561077b5761077a6105ec565b5b600061078984828501610750565b91505092915050565b61079b8161065b565b82525050565b60006060820190506107b66000830186610792565b6107c36020830185610792565b6107d06040830184610792565b949350505050565b600073ffffffffffffffffffffffffffffffffffffffff82169050919050565b6000819050919050565b600061081d610818610813846107d8565b6107f8565b6107d8565b9050919050565b600061082f82610802565b9050919050565b600061084182610824565b9050919050565b61085181610836565b82525050565b600060208201905061086c6000830184610848565b92915050565b600061087d82610824565b9050919050565b61088d81610872565b82525050565b60006020820190506108a86000830184610884565b92915050565b60006020820190506108c36000830184610792565b92915050565b7f4e487b7100000000000000000000000000000000000000000000000000000000600052601160045260246000fd5b60006109038261065b565b915061090e8361065b565b925082820261091c8161065b565b91508282048414831517610933576109326108c9565b5b5092915050565b6000610945826107d8565b9050919050565b6109558161093a565b82525050565b6000602082019050610970600083018461094c565b92915050565b60008151905061098581610665565b92915050565b6000602082840312156109a1576109a06105ec565b5b60006109af84828501610976565b91505092915050565b600082825260208201905092915050565b7f496e73756666696369656e742066756e64730000000000000000000000000000600082015250565b60006109ff6012836109b8565b9150610a0a826109c9565b602082019050919050565b60006020820190508181036000830152610a2e816109f2565b9050919050565b600082825260208201905092915050565b6000819050919050565b610a598161093a565b82525050565b6000610a6b8383610a50565b60208301905092915050565b610a808161093a565b8114610a8b57600080fd5b50565b600081359050610a9d81610a77565b92915050565b6000610ab26020840184610a8e565b905092915050565b6000602082019050919050565b6000610ad38385610a35565b9350610ade82610a46565b8060005b85811015610b1757610af48284610aa3565b610afe8882610a5f565b9750610b0983610aba565b925050600181019050610ae2565b5085925050509392505050565b60006040820190508181036000830152610b3f818587610ac7565b9050610b4e6020830184610792565b949350505050565b6000610b618261065b565b91507fffffffffffffffffffffffffffffffffffffffffffffffffffffffffffffffff8203610b9357610b926108c9565b5b600182019050919050565b7f4e487b7100000000000000000000000000000000000000000000000000000000600052603260045260246000fd5b600060208284031215610be357610be26105ec565b5b6000610bf184828501610a8e565b91505092915050565b6000604082019050610c0f600083018561094c565b610c1c6020830184610792565b9392505050565b60008115159050919050565b610c3881610c23565b82525050565b6000604082019050610c53600083018561094c565b610c606020830184610c2f565b9392505050565b6000604082019050610c7c600083018661070f565b8181036020830152610c8f818486610ac7565b905094935050505056fea2646970667358221220b0662dd5a8d93cc6ca8dd17856d027ec10e7144fe554d20aad36c489e7f14ece64736f6c634300081c0033",
  "linkReferences": {},
  "deployedLinkReferences": {}
}