{
  "_format": "hh-sol-artifact-1",
  "contractName": "Reputation",
  "sourceName": "contracts/Reputation.sol",
  "abi": [
    {
      "anonymous": false,
      "inputs": [
        {
          "indexed": false,
          "internalType": "address",
          "name": "user",
          "type": "address"
        },
        {
          "indexed": false,
          "internalType": "uint256",
          "name": "newScore",
          "type": "uint256"
        }
      ],
      "name": "ScoreUpdated",
      "type": "event"
    },
    {
      "inputs": [
        {
          "internalType": "address",
          "name": "",
          "type": "address"
        }
      ],
      "name": "creditScore",
      "outputs": [
        {
          "internalType": "uint256",
          "name": "",
          "type": "uint256"
        }
      ],
      "stateMutability": "view",
      "type": "function"
    },
    {
      "inputs": [
        {
          "internalType": "address",
          "name": "user",
          "type": "address"
        }
      ],
      "name": "getCreditLevel",
      "outputs": [
        {
          "internalType": "string",
          "name": "",
          "type": "string"
        }
      ],
      "stateMutability": "view",
      "type": "function"
    },
    {
      "inputs": [
        {
          "internalType": "address",
          "name": "user",
          "type": "address"
        },
        {
          "internalType": "bool",
          "name": "onTimePayment",
          "type": "bool"
        }
      ],
      "name": "updateScore",
      "outputs": [],
      "stateMutability": "nonpayable",
      "type": "function"
    }
  ],
  "bytecode": "0x6080604052348015600f57600080fd5b506106de8061001f6000396000f3fe608060405234801561001057600080fd5b50600436106100415760003560e01c8063069a7882146100465780638388131114610076578063f7e590ee14610092575b600080fd5b610060600480360381019061005b919061044e565b6100c2565b60405161006d919061050b565b60405180910390f35b610090600480360381019061008b9190610565565b61021b565b005b6100ac60048036038101906100a7919061044e565b6103d3565b6040516100b991906105be565b60405180910390f35b606060008060008473ffffffffffffffffffffffffffffffffffffffff1673ffffffffffffffffffffffffffffffffffffffff168152602001908152602001600020549050610320811061014e576040518060400160405280600381526020017f4141410000000000000000000000000000000000000000000000000000000000815250915050610216565b6102588110610195576040518060400160405280600281526020017f4141000000000000000000000000000000000000000000000000000000000000815250915050610216565b61019081106101dc576040518060400160405280600181526020017f4100000000000000000000000000000000000000000000000000000000000000815250915050610216565b6040518060400160405280600181526020017f42000000000000000000000000000000000000000000000000000000000000008152509150505b919050565b801561027c5760326000808473ffffffffffffffffffffffffffffffffffffffff1673ffffffffffffffffffffffffffffffffffffffff16815260200190815260200160002060008282546102709190610608565b92505081905550610358565b60646000808473ffffffffffffffffffffffffffffffffffffffff1673ffffffffffffffffffffffffffffffffffffffff16815260200190815260200160002054116102c9576000610315565b60646000808473ffffffffffffffffffffffffffffffffffffffff1673ffffffffffffffffffffffffffffffffffffffff16815260200190815260200160002054610314919061063c565b5b6000808473ffffffffffffffffffffffffffffffffffffffff1673ffffffffffffffffffffffffffffffffffffffff168152602001908152602001600020819055505b7f66ead48cfe0e1d1aa8bad492e906c348dfcfeecbf3b7b2cdf9b1f3cfa42a2945826000808573ffffffffffffffffffffffffffffffffffffffff1673ffffffffffffffffffffffffffffffffffffffff168152602001908152602001600020546040516103c792919061067f565b60405180910390a15050565b60006020528060005260406000206000915090505481565b600080fd5b600073ffffffffffffffffffffffffffffffffffffffff82169050919050565b600061041b826103f0565b9050919050565b61042b81610410565b811461043657600080fd5b50565b60008135905061044881610422565b92915050565b600060208284031215610464576104636103eb565b5b600061047284828501610439565b91505092915050565b600081519050919050565b600082825260208201905092915050565b60005b838110156104b557808201518184015260208101905061049a565b60008484015250505050565b6000601f19601f8301169050919050565b60006104dd8261047b565b6104e78185610486565b93506104f7818560208601610497565b610500816104c1565b840191505092915050565b6000602082019050818103600083015261052581846104d2565b905092915050565b60008115159050919050565b6105428161052d565b811461054d57600080fd5b50565b60008135905061055f81610539565b92915050565b6000806040838503121561057c5761057b6103eb565b5b600061058a85828601610439565b925050602061059b85828601610550565b9150509250929050565b6000819050919050565b6105b8816105a5565b82525050565b60006020820190506105d360008301846105af565b92915050565b7f4e487b7100000000000000000000000000000000000000000000000000000000600052601160045260246000fd5b6000610613826105a5565b915061061e836105a5565b9250828201905080821115610636576106356105d9565b5b92915050565b6000610647826105a5565b9150610652836105a5565b925082820390508181111561066a576106696105d9565b5b92915050565b61067981610410565b82525050565b60006040820190506106946000830185610670565b6106a160208301846105af565b939250505056fea26469706673582212207386561d729e83b0997da3ed890be52d6d150941713163f2f55317688f9e3b1164736f6c634300081c0033",
  "linkReferences": {},
  "deployedLinkReferences": {}
}